:100000000C9434030C945C030C945C030C945C031C
:100010000C945C030C945C030C945C030C945C03E4
:100020000C945C030C945C030C9423090C949509C8
:100030000C945C030C945C030C945C030C945C03C4
:100040000C945C030C945C030C945C030C945C03B4
:100050000C945C030C945C030C945C030C948B0C6C
:100060000C945C030C945C030C945C030C945C0394
:100070000C945C030C945C030C945C030C945C0384
:100080000C945C030C945C030C945C030C945C0374
:100090000C945C030C945C030C945C030C945C0364
:1000A0000C945C030C945C030C945C03D5F08D14ED
:1000B000A1C881CFD9F1AF200000000000003E5B55
:1000C0004F5B3E3E6B4F6B3E1C3E7C3E1C183C7EA5
:1000D0003C181C577D571C1C5E7F5E1C00183C188A
:1000E00000FFE7C3E7FF0018241800FFE7DBE7FF86
:1000F00030483A060E2629792926407F0505074013
:100100007F05253F5A3CE73C5A7F3E1C1C08081CD3
:100110001C3E7F14227F22145F5F005F5F06097F11
:10012000017F006689956A606060606094A2FFA2AA
:100130009408047E040810207E201008082A1C0859
:10014000081C2A08081E101010100C1E0C1E0C3063
:10015000383E3830060E3E0E06000000000000005B
:100160005F00000007000700147F147F14242A7F1B
:100170002A122313086462364956205000080703E8
:1001800000001C2241000041221C002A1C7F1C2A66
:1001900008083E08080080703000080808080800B9
:1001A0000060600020100804023E5149453E0042B4
:1001B0007F400072494949462141494D3318141284
:1001C0007F1027454545393C4A49493141211109AC
:1001D000073649494936464949291E00001400009E
:1001E00000403400000008142241141414141400B8
:1001F0004122140802015909063E415D594E7C1204
:1002000011127C7F494949363E414141227F41419B
:10021000413E7F494949417F090909013E41415118
:10022000737F0808087F00417F41002040413F0163
:100230007F081422417F404040407F021C027F7FA4
:100240000408107F3E4141413E7F090909063E41B5
:1002500051215E7F09192946264949493203017F08
:1002600001033F4040403F1F2040201F3F40384097
:100270003F631408146303047804036159494D4330
:10028000007F4141410204081020004141417F04A8
:10029000020102044040404040000307080020548F
:1002A0005478407F284444383844444428384444EF
:1002B000287F385454541800087E090218A4A49CBE
:1002C000787F0804047800447D40002040403D00D1
:1002D0007F1028440000417F40007C047804787C33
:1002E000080404783844444438FC1824241818249A
:1002F0002418FC7C08040408485454542404043F83
:1003000044243C4040207C1C2040201C3C40304089
:100310003C44281028444C9090907C4464544C44B5
:100320000008364100000077000000413608000256
:10033000010204023C2623263C1EA1A161123A4080
:1003400040207A38545455592155557941215454F7
:100350007841215554784020545579400C1E5272F2
:1003600012395555555939545454593955545458CE
:100370000000457C410002457D420001457C40F083
:10038000292429F0F0282528F07C545545002054D4
:10039000547C547C0A097F493249494932324848E1
:1003A0004832324A4848303A4141217A3A42402064
:1003B00078009DA0A07D39444444393D4040403DF3
:1003C0003C24FF2424487E4943662B2FFC2F2BFF1F
:1003D0000929F620C0887E09032054547941000081
:1003E000447D413048484A32384040227A007A0AF7
:1003F0000A727D0D19317D2629292F2826292929C0
:100400002630484D402038080808080808080838F1
:100410002F10C8ACBA2F102834FA00007B00000857
:10042000142A142222142A14089500220095AA00E6
:100430005500AAAA55AA55AA000000FF00101010E6
:10044000FF00141414FF001010FF00FF1010F01034
:10045000F0141414FC001414F700FF0000FF00FF58
:100460001414F404FC141417101F10101F101F1480
:1004700014141F00101010F0000000001F101010C6
:10048000101F10101010F010000000FF10101010BE
:100490001010101010FF10000000FF140000FF00EB
:1004A000FF00001F10170000FC04F41414171017AD
:1004B0001414F404F40000FF00F7141414141414BA
:1004C00014F700F7141414171410101F101F14142D
:1004D00014F4141010F010F000001F101F000000A2
:1004E0001F14000000FC140000F010F01010FF10AA
:1004F000FF141414FF141010101F00000000F0105F
:10050000FFFFFFFFFFF0F0F0F0F0FFFFFF00000043
:100510000000FFFF0F0F0F0F0F38444438447C2AB0
:100520002A3E147E02020606027E027E02635549BE
:1005300041633844443C04407E201E2006027E0273
:100540000299A5E7A5991C2A492A1C4C7201724CF4
:10055000304A4D4D303048784830BC625A463D3EB6
:10056000494949007E0101017E2A2A2A2A2A444457
:100570005F444440514A444040444A51400000FFD7
:100580000103E080FF000008086B6B083612362478
:1005900036060F090F0600001818000000101000A2
:1005A0003040FF0101001F01011E00191D1712003C
:1005B0003C3C3C3C0000000000080B000202020032
:1005C00000090400000102020000052400100105DA
:1005D0002401010104240206052406000107058107
:1005E0000310004009040100020A00000007050290
:1005F00002400000070583024000000403090412C2
:10060000010002EF02014041233680000101020394
:100610000141726475696E6F204C4C430055534222
:1006200020494F20426F61726400010204081020CB
:10063000408047616D65204F766572000F09090F94
:1006400048692D53636F72650A0053636F72650AC0
:10065000007F41414141417F7F556B556B557F7F05
:100660007F7F7F7F7F7F861511241FBECFEFDAE06B
:10067000DEBFCDBF12E0A0E0B1E0EAEBFDE202C0D8
:1006800005900D92A033B107D9F727E0A0E3B2E0BF
:1006900001C01D92A933B207E1F713E0C4E3D3E030
:1006A00004C02197FE010E94D516C333D107C9F7B4
:1006B0000E94A40F0C9454160C9400002091B402D4
:1006C000211103C08FEF9FEF08955FB7F89422E0E8
:1006D0002093E9002091F20030E01216130614F482
:1006E00021E030E0422FFC0184E6415038F02898A8
:1006F0008093B3029091F1009193F7CF21153105CA
:1007000021F08091F200882319F05FBFC90108959C
:100710008BE68093E800F9CF2FB7F89483E08093BD
:10072000E9009091E800892F807295FF04C09091B4
:10073000F20080E4891B2FBF0895CF93DF931F92AF
:10074000CDB7DEB76983DC01ED91FC910280F381C6
:10075000E02D41E050E0BE016F5F7F4F09950F90A3
:10076000DF91CF91089583E08093E9008091F200BA
:10077000882319F08AE38093E80008950E948C038F
:1007800090E00895CF93DF931F92CDB7DEB7FC01C1
:100790008485958597FD05C02FEF3FEF358724872A
:1007A0000BC0CE0101960E945E03019719F4898166
:1007B00090E002C08FEF9FEF0F90DF91CF910895EF
:1007C0000F931F93CF93DF931F92CDB7DEB78C01AA
:1007D000FC018485958597FF0EC0CE0101960E948D
:1007E0005E03019719F4898190E002C08FEF9FEFBB
:1007F000F80195878487F801848595850F90DF91AE
:10080000CF911F910F910895FC018485958597FDE7
:100810000BC09FB7F89482E08093E9008091F200CA
:100820009FBF90E0019608959FB7F89482E080936F
:10083000E9008091F2009FBF90E008952F923F92CF
:100840004F925F926F927F928F929F92AF92BF92E0
:10085000CF92DF92EF92FF920F931F93CF93DF938C
:10086000CDB7DEB729970FB6F894DEBF0FBECDBF68
:10087000998788876A30A1F4DC0155962C915597A9
:1008800051968D919C915297B8E02B9F800D911DB0
:100890001124E885F985928B818B108A1786B2C066
:1008A0006D3009F4AFC0A885B9851F960D911C91D4
:1008B000509700381105BCF0E885F9852589422F4D
:1008C00050E087859089F6E02F9F800D911D1124BF
:1008D000A885B98550969C938E931F9756962C9118
:1008E00021117AC08FC0E885F98561887288F0E4AB
:1008F0006F1671040CF7A885B9855596FC90C80150
:10090000B5E0FB9E800D911D112418161906A4F662
:10091000EF2DF0E0FC83EB83C301F8E0FF9E800D38
:10092000911D1124181619063CF6A885B985549610
:100930003C90549753962C90B5E06B9FB0011124D6
:10094000FB01E754FF4FFA83E98330E088859985FE
:1009500004969E838D83E981FA81E490353009F411
:10096000E12C530188E0582EE0FE02C0422C01C069
:10097000432C411002C03214D9F068018C2D801B29
:100980008F15B0F44501882D8A198F1568F4242D30
:10099000A401B6018D819E813F830E940509FFEF6E
:1009A0008F1A9F0A3F81EFCF2FEFC21AD20AE6CFEC
:1009B000E6945A948B819C81A80EB91E5110D4CF15
:1009C0003F5F080F191FA981BA811196BA83A983C5
:1009D000363009F0C0CF70CF6AEF64039001659F95
:1009E000300D112420583F4F281739075CF4A88593
:1009F000B985ED91FC9111970190F081E02D6AE0AD
:100A0000CD01099581E090E029960FB6F894DEBFFC
:100A10000FBECDBFDF91CF911F910F91FF90EF904F
:100A2000DF90CF90BF90AF909F908F907F906F900E
:100A30005F904F903F902F9008950E94D0168F9214
:100A40009F92AF92BF92CF92DF92EF92FF920F935D
:100A50001F93CF93DF935C016B017A0180910901B1
:100A6000882309F459C08091B402882309F454C042
:100A70008091B20280FF05C08091E0008260809387
:100A8000E000E70110E00AEF83E0882E9AE3992E58
:100A9000209711F41123C9F10E948C03811109C020
:100AA0000150D1F161E070E080E090E00E94450CDF
:100AB000EFCF282F30E0C217D3070CF48C2F9FB74D
:100AC000F8948092E9002091E80025FF1CC0282FAF
:100AD00030E0C21BD30BF601815020F041914093CE
:100AE000F100FACFC20ED31E112319F09092E80044
:100AF00009C08091E80085FD06C09092E80011E0F1
:100B0000209709F010E09FBFC3CF5D9884E68093E3
:100B1000B1021E141F0444F081E090E0F5019383BC
:100B2000828380E090E001C0C701DF91CF911F91E7
:100B30000F91FF90EF90DF90CF90BF90AF909F907C
:100B40008F900895E5EBF2E080E0A0E0B8E000804F
:100B50000EBC8111012C1197A0FDFDCF0192B9F7B8
:100B60000DB408950F931F93CF93DF938C01C0E0D2
:100B7000D0E0F801EC0FFD1F6491662341F085EB96
:100B800096E00E941E04892B11F02196F2CFCE012F
:100B9000DF91CF911F910F9108952F923F924F9225
:100BA0005F926F927F928F929F92AF92BF92CF92FD
:100BB000DF92EF92FF920F931F93CF93DF93EC019D
:100BC0008B017A016901C61AD70AD7FE03C0D194F6
:100BD000C194D1085701AC1ABD0AB7FE03C0B19445
:100BE000A194B108AC14BD0454F49E2D8F2D79014D
:100BF000292F382F9C2F8D2FE801092F182FEC1645
:100C0000FD0654F4902F812F8901292F382F9C2F16
:100C10008D2FE701E92EF82E17012C1A3D0A290124
:100C2000401A510A57FE03C05194419451083101B2
:100C300037FE03C08FEF681A780A7594679402171D
:100C4000130714F08FEF01C081E0882E880F9908F8
:100C5000EC16FD06BCF021E0AC14BD041CF4AE01A2
:100C6000B80102C0A801BE0189EB96E00E94050907
:100C70006418750877FE04C0080D191D620C731CFA
:100C80002196E6CFDF91CF911F910F91FF90EF90CA
:100C9000DF90CF90BF90AF909F908F907F906F909C
:100CA0005F904F903F902F9008952F923F924F92D8
:100CB0005F926F927F928F929F92AF92BF92CF92EC
:100CC000DF92EF92FF920F931F93CF93DF93CDB7F5
:100CD000DEB72A970FB6F894DEBF0FBECDBF5A011C
:100CE000822E912C9401280F391F37FDB8C080380F
:100CF00091050CF0B4C09B01200F311D37FDAFC032
:100D0000603471050CF0ABC0AB0177FF04C0442721
:100D10005527461B570B477055279B0177FF02C08D
:100D2000295F3F4FE3E035952795EA95E1F777FF97
:100D300008C02150310968E070E0DB01A41BB50B4D
:100D4000AD01202E269426942694312C077019F09C
:100D5000BFEF2B1A3B0A220E331E39017694762CF4
:100D6000662477946794680E791EE12CF12C00E0DC
:100D700010E0B30160587F4F7A87698768E070E0C0
:100D8000DB01A41BB50BBA83A9832216330609F431
:100D900066C02830310509F462C02F3FBFEF3B0722
:100DA0000CF452C069857A85600F711FDB01AB546A
:100DB000BD4FBC83AB83D801A60DB71DAB54BD4F4F
:100DC0006C0160E070E0681579050CF03DC0E0E86A
:100DD000CE16D104C9F1D7FC2BC02F3FFFEF3F0740
:100DE00009F439C0FB01EE0DFF1DEA0DFB1DE49176
:100DF000042E01C0EE0F0A94EAF7FC91EF2BEC935E
:100E000041155105A9F02730310591F0FB01EE0D98
:100E1000FF1DEA0DFB1D4490512C098002C0559422
:100E200047940A94E2F7EB81FC8150804528408288
:100E30006F5F7F4FEB81FC813196FC83EB83FFEF8B
:100E4000CF1ADF0A1196BFCF2F5F3F4F00581F4FB9
:100E5000E80CF91C9ACF41155105C1F6E9CF2A9645
:100E60000FB6F894DEBF0FBECDBFDF91CF911F91BB
:100E70000F91FF90EF90DF90CF90BF90AF909F9039
:100E80008F907F906F905F904F903F902F9008953C
:100E90008F929F92AF92BF920F931F93CF93DF9346
:100EA000CDB7DEB7A1970FB6F894DEBF0FBECDBFAA
:100EB00019A2423008F44AE08E010F5D1F4F842EC4
:100EC000912CA12CB12CA50194010E948916E62F2A
:100ED000B901CA0101501109EA3014F4E05D01C002
:100EE000E95CD801EC93232B242B252B61F701150A
:100EF000110571F0F80101900020E9F73197AF0179
:100F0000401B510BB80185EB96E00E94030802C01C
:100F100080E090E0A1960FB6F894DEBF0FBECDBF83
:100F2000DF91CF911F910F91BF90AF909F908F90C5
:100F300008959C01240F311D1216130684F5803884
:100F400091056CF597FF02C080E090E021383105F3
:100F500014F020E830E0281BFB01E770FF2741E098
:100F600050E001C0440FEA95EAF7409577FF02C0D0
:100F7000695F7F4F33E0759567953A95E1F7769510
:100F8000762F662777956795860F971FFC01EB54A0
:100F9000FD4F215020F0808184238193FACF089562
:100FA0002091BF06282329F49091BE06982381E062
:100FB00009F480E008958091D00681110DC082E08F
:100FC0008093CC0684E08093CD061092CF061092D9
:100FD000CE0681E08093D0068CEC96E00895BC01AB
:100FE00080E090E00C94450C8FB18095807F669BEB
:100FF00088601C9B846008955C9808955C9A0895AD
:101000000C94BA160895CF92DF92EF92FF920F934D
:101010001F93CF93DF936C017A018B01C0E0D0E086
:10102000CE15DF0581F0D8016D918D01D601ED91CE
:10103000FC910190F081E02DC6010995892B11F0FA
:101040002196EECF7E01C701DF91CF911F910F91C5
:10105000FF90EF90DF90CF900895089580E090E0AA
:10106000089540912B0750912C072091290730912A
:101070002A0742175307B4F49091E8009570E1F302
:101080009091E80092FD19C08093F10080912B07A8
:1010900090912C0701968F739927892B19F48EEF65
:1010A0008093E80080912B0790912C0701969093F4
:1010B0002C0780932B0781E0089580E00895CF925C
:1010C000DF92EF92FF920F931F93CF93DF931F92C4
:1010D000CDB7DEB7F82EE42E062F10E098012F5F73
:1010E0003F4F822F880F99830E94310883E00E942E
:1010F0003108CF2C9981D92E0C0D1D1DC016D1069B
:1011000099F0F601E7FE02C0849101C080810E943F
:101110003108F82E80E00E9431088F21FFEFCF1AAE
:10112000DF0A8111EBCF01C081E00F90DF91CF91F9
:101130001F910F91FF90EF90DF90CF900895DF9275
:10114000EF92FF920F931F93CF93DF93D82E8A01D4
:101150007B01E40EF51EEB01CE15DF0571F0D7FE25
:1011600003C0FE01849101C088810E94310821964C
:101170008111F2CF8FEF9FEF01C0C801DF91CF91B6
:101180001F910F91FF90EF90DF900895615030F024
:101190002091F100FC0120830196F8CF289884E685
:1011A0008093B30208950F931F93CF93DF931F9201
:1011B000CDB7DEB782E0898342E450E069EB75E0A9
:1011C00080E80E949F080E94DB07DC0112960D91C7
:1011D0001C9113970115110589F0D801ED91FC912F
:1011E0000280F381E02DBE016F5F7F4FC80109953A
:1011F00097FD04C0F80100851185ECCF89810F901F
:10120000DF91CF911F910F91089560387105D0F44F
:1012100040345105B8F4EAE2F6E080E1849FD00161
:10122000A0781124A60F4770E40FF11D8491AB54F0
:10123000BD4F222319F06C91862B03C080956C91D1
:1012400086238C9308951F920F920FB60F9211244C
:101250008F939F938091E1009091E100937F909311
:10126000E10083FF0FC01092E90091E09093EB0042
:101270001092EC0092E39093ED001092B40298E08B
:101280009093F00082FF20C093E09093E90090914A
:10129000F200992319F09AE39093E8009091B1023B
:1012A000992339F09091B10291509093B102992312
:1012B00089F19091B302992339F09091B302915042
:1012C0009093B302992341F184FF10C08091E20012
:1012D0008E7E81608093E2008091E1008F7E80931A
:1012E000E1008091B2028E7E806111C080FF16C045
:1012F0008091E2008E7E80618093E2008091E10027
:101300008E7E8093E1008091B2028E7E8160809318
:10131000B20204C05D9ACDCF289AD6CF9F918F910B
:101320000F900FBE0F901F9018951F920F920FB63F
:101330000F921124CF92DF92EF92FF920F931F939F
:101340002F933F934F935F936F937F938F939F93CD
:10135000AF93BF93EF93FF93CF93DF93CDB7DEB7F8
:101360006C97DEBFCDBF1092E9008091E80083FF4B
:10137000FBC168E0CE0145960E94C60882EF8093CB
:10138000E8008D8987FF05C09091E80090FFFCCFB1
:1013900003C09EEF9093E800982F907609F0C6C0A6
:1013A0009E894F89588D2F89F88C91110CC08038F7
:1013B00029F4809128078093F10002C01092F10077
:1013C0001092F10045C1913051F4811141C1413079
:1013D000510509F03DC1809128078D7F0BC09330E6
:1013E00061F4811135C14130510509F031C180915D
:1013F00028078260809328072BC1953049F480919B
:10140000E80080FFFCCF822F80688093E30020C13A
:10141000963009F05EC00B8D1C8D22E01092E90021
:1014200010922C0710922B07F21232C010922A074A
:10143000109229070E94D30899E0BE016F5F7F4F89
:10144000DB01E92F1D92EA95E9F79983FA8291E091
:101450009E8390EA98879AEF998720912B07309185
:101460002C07275F3F4F3C832B838D831092E9002D
:1014700010922C0710922B0710932A07009329072C
:1014800049E050E080E00E949F080E94D308E0C03D
:1014900010932A07009329070E94DB07DC011296AC
:1014A0000D911C9113970115110509F4BBC0D801CA
:1014B000ED91FC910480F581E02DBE016B5E7F4FC4
:1014C000C8010995009709F0C7C0F801008511858A
:1014D000EACF973009F445C1983021F481E0809338
:1014E000F100B6C0993009F0B3C0837009F039C17A
:1014F000E9E2F2E081E031E096E32081211109C0C8
:101500008EE78093EA001092EA008F898093B402FC
:101510009FC08093E9003093EB0021912093EC0071
:101520009093ED008F5F873041F7EACF8B8D9C8DD4
:101530001092E90010922C0710922B0790932A0723
:1015400080932907898D811153C08E899D89913A95
:1015500049F4813209F005C147E050E062E071E0F2
:1015600080E0BBC0913209F0FCC0833269F48F89FE
:10157000988DA0E0B0E080930A0190930B01A093B6
:101580000C01B0930D0164C0803269F48091E800D1
:1015900082FFFCCF67E082E091E00E94C6088BEFFB
:1015A0008093E80055C0823209F052C08F89809341
:1015B0000901EEEFFFE7859194918B3F9C4D19F067
:1015C000E0E0F8E002C0EEEFFAE0809102019091D5
:1015D0000301A0910401B0910501803B9440A10555
:1015E000B10509F09EC08091090180FF79C099C0C2
:1015F0000E94DB07FC01028113810115110509F42A
:10160000B0C0D801ED91FC910190F081E02DBE01B8
:101610006B5E7F4FC801099581111AC0F8010085E2
:101620001185EBCFF1E0FF1609F44EC0F3E0FF1295
:1016300098C08F89882309F44AC0823089F440E831
:101640006CE08DE196E00E945F08882309F489C070
:101650008EEF8093E80088C018161906CCF381C07D
:10166000813029F440E86BE081E196E0ECCF8330F3
:1016700009F077C00E94DB07DC011296ED90FC9028
:1016800013978E010F5F1F4F6801E114F10479F089
:10169000D701ED91FC910680F781E02DB801C701DB
:1016A0000995080F111DF701E084F184EECFD801F0
:1016B0001C92F60101900020E9F73197BF016C19E7
:1016C0007D0940E0C601BFCF6FEF75E002C06BEF50
:1016D00075E0FB01449150E080E80E949F08B8CF7C
:1016E000EE3F2AE0F20751F0808191818737A7E72A
:1016F0009A0721F09093FF0A8093FE0A87E797E705
:10170000918380838091600080932D079BE088E126
:101710000FB6F894A895809360000FBE9093600078
:1017200097CF808191818737974709F091CFA8950E
:101730008091600088618093600080912D07809384
:101740006000EE3FBAE0FB0739F08091FE0A90910D
:10175000FF0A918380837CCF1092FF0A1092FE0AC9
:1017600077CF81E28093EB006C960FB6F894DEBFE2
:101770000FBECDBFDF91CF91FF91EF91BF91AF91A0
:101780009F918F917F916F915F914F913F912F9199
:101790001F910F91FF90EF90DF90CF900F900FBEB1
:1017A0000F901F9018955F926F927F928F929F92E9
:1017B000AF92BF92CF92DF92EF92FF920F931F935F
:1017C000CF93DF937C01522E4801C0E0C42ED12C70
:1017D000A62EB12CF7018181C81710F536015C9E49
:1017E000600C711C1124D0E0F7018081D817B0F48F
:1017F000C89FE00DF11D1124ED0FF11D8381882399
:1018000059F0052D252DA401B301C501D59D800DED
:10181000911D11240E945506DF5FE6CFCF5FDACF1E
:10182000DF91CF911F910F91FF90EF90DF90CF90BC
:10183000BF90AF909F908F907F906F905F90089532
:101840003FB7F8948091350790913607A0913707FC
:10185000B091380726B5A89B05C02F3F19F0019617
:10186000A11DB11D3FBFBA2FA92F982F8827820F26
:10187000911DA11DB11DBC01CD0142E0660F771F76
:10188000881F991F4A95D1F708958F929F92AF9222
:10189000BF92CF92DF92EF92FF926B017C010E9488
:1018A000200C4B015C01C114D104E104F104F1F0FE
:1018B0000E94200CDC01CB0188199909AA09BB09F7
:1018C000883E9340A105B10570F321E0C21AD1080A
:1018D000E108F10888EE880E83E0981EA11CB11C77
:1018E000C114D104E104F10419F7DDCFFF90EF90AA
:1018F000DF90CF90BF90AF909F908F9008952FB7BB
:10190000F89460913107709132078091330790917C
:1019100034072FBF08951F920F920FB60F92112414
:101920002F933F938F939F93AF93BF9380913107F2
:1019300090913207A0913307B0913407309130076E
:1019400023E0230F2D3720F40196A11DB11D05C002
:1019500026E8230F0296A11DB11D20933007809326
:10196000310790933207A0933307B09334078091E7
:10197000350790913607A0913707B0913807019647
:10198000A11DB11D8093350790933607A0933707AB
:10199000B0933807BF91AF919F918F913F912F9155
:1019A0000F900FBE0F901F901895DF92EF92FF924D
:1019B0000F931F93CF93DF93FC017081C72FD0E06B
:1019C0009E01260F311D2B30310594F5D18050E05A
:1019D0009A012D0D311D2B30310554F5DC01139684
:1019E000FAE06F9F400D511D112490E09D15F1F01C
:1019F0007A01E90EF11C8D0120E030E060E067170C
:101A000089F0F80181918F01882341F0F901EE0DF1
:101A1000FF1DEA5CFD4F828981110AC06F5F265F5E
:101A20003F4FEDCF9F5FAC0FBD1FE0CF81E001C006
:101A300080E0DF91CF911F910F91FF90EF90DF90A9
:101A40000895EF92FF920F931F93CF93DF938C0132
:101A5000109246028AE0E82EF12CC09146022C2F0B
:101A600030E0F8018181A701481B51094217530753
:101A7000ECF010924502D09145022D2F30E0F80194
:101A80008081A701481B5109421753075CF04C2F76
:101A90006D2FC8010E94D50C81110DC0DF5FD0935E
:101AA0004502E9CFCF5FC0934602D7CF10924602DE
:101AB0001092450280E0DF91CF911F910F91FF902E
:101AC000EF900895FF920F931F93CF93DF93C0E49D
:101AD000D2E003E412E08CE0F82E8991882349F0EB
:101AE000F89EC00111248E5E9E4F0E94210D81112F
:101AF00004C00C171D0789F780E0DF91CF911F917B
:101B00000F91FF900895CF92DF92EF92FF921F9373
:101B1000CF93DF93C0E4D2E0FE0180E09191911178
:101B20008F5F22E0E334F207C9F781114BC0809147
:101B30002E0790912F07009711F013E01FC0E4E1EA
:101B4000F1E02081820F911D3C9622E0E430F20703
:101B5000C1F790932F0780932E07EFCF81E090E09D
:101B6000A0E0B0E0682FE4E1F1E080E09081691747
:101B700018F5888311502196112321F1C0902E076A
:101B8000D0902F070D2C000CEE08FF0882E0C8163D
:101B9000D104E104F10414F30E944616A701960152
:101BA00021503109410951090E945716DC01CB012E
:101BB0000196A11DB11DD6CF691B8F5F3C96843164
:101BC000A9F6D8CFDF91CF911F91FF90EF90DF90D2
:101BD000CF900895AF92BF92CF92DF92EF92FF9293
:101BE0000F931F93CF93DF9380E0E5EBF2E0811139
:101BF0008FEF002481938193819381930394D1F794
:101C00001092C7061092C6061092C5061092C4061E
:101C100048E4C42E42E0D42EC1E0D0E017E05601E3
:101C200032E4E32EF12CF5014081149FA001112430
:101C30004F5A594F07E027E0BE01C7010E945506E1
:101C4000FAE0AF0EB11C26E0E20EF11C8EE7E816BA
:101C5000F10449F7EFEFCE1ADE0A2696CD33D1050F
:101C6000F1F62EE330E04FE750E06EE370E083E4FE
:101C700090E00E94CD052EE330E04FE750E062E0B7
:101C800070E08FE790E00E94CD05809144028823A8
:101C9000E9F090914702911119C090914602492FA5
:101CA000440F490F440F4F5F90914502692F660F13
:101CB000690F660F6E5BFCE08F9FC00111240FE57A
:101CC00016E026E08E5E9E4F0E94D30B1092C50652
:101CD0001092C4061092C7061092C6068AE496E0D7
:101CE0000E94B20560913C0270913D0280913E02DB
:101CF00090913F024AE00E9448071092C506109258
:101D0000C40684E190E09093C7068093C60680E401
:101D100096E00E94B205609138027091390280917C
:101D20003A0290913B024AE00E94480780E4C82EA4
:101D300082E0D82ECAE0D0E0F12C9CE0E92E28E128
:101D4000A22EB12CF60181916F01E89EC0011124F1
:101D50008E5E9E4FFC012181A501421B5109440F5B
:101D60002081220F6C2F621B0CE316E024E00E94FE
:101D7000D30B809143028F1122C0809144028111C4
:101D80001EC021E04CE350E0BE0189EB96E00E94CA
:101D900005092DE330E0AE014F5F5F4F6DE370E06A
:101DA000CE0101970E94CD052EE330E0AE014E5FDB
:101DB0005F4F6EE370E0CE0102970E94CD05F39471
:101DC0006596F3E0FF12BECFDF91CF911F910F9187
:101DD000FF90EF90DF90CF90BF90AF900C94A20552
:101DE000EF92FF920F931F93CF93DF931F92CDB784
:101DF000DEB706E312E0E12CF12CF80161918F01CE
:101E0000C70169830E94BA166981681719F0C70172
:101E10000E94C216FFEFEF1AFF0A86E7E816F104E8
:101E200061F70F90DF91CF911F910F91FF90EF908D
:101E300008950F931F93CF93DF9381E08093470220
:101E400080933302C0E0D0E006E210E020E0A80179
:101E5000BE0189EB96E00E9405090F5F1F4F003419
:101E60001105A1F72196C134D10571F71092C5066D
:101E70001092C40682E390E09093C7068093C60652
:101E800082E396E00E94B2050E94A205DF91CF9105
:101E90001F910F910C94F00ECF93DF93E6E3F2E0E5
:101EA00082819381A481B58126E7EF0119922A9559
:101EB000E9F782839383A483B58310923002109252
:101EC00031021092320210923302109234021092B8
:101ED00035028EEF8083818383E884BD8FEF87BDD9
:101EE00081EF809380001092880010928A000E94F7
:101EF000830DDF91CF910C94F00E8EBD00000DB4D8
:101F000007FEFDCF8EB50895CF93DF938A309105FC
:101F100044F0EC018F3F910531F02CF0CFEFD0E091
:101F200002C0CAE0D0E00E94FC0781E80E947D0F59
:101F30008C2F0E947D0F0E94FE07D0930101C09359
:101F40000001DF91CF910895CF93DF93CDB7DEB736
:101F500065970FB6F894DEBF0FBECDBF789484B5F9
:101F6000826084BD84B5816084BD85B5826085BD95
:101F700085B5816085BD80916E00816080936E0023
:101F80001092810080918100826080938100809115
:101F900081008160809381008091800081608093C6
:101FA00080008091910082608093910080919100E7
:101FB0008160809391008091900081608093900077
:101FC0008091C10084608093C1008091C1008260D3
:101FD0008093C1008091C10081608093C100809195
:101FE000C30081608093C3008091C00082608093B1
:101FF000C0008091C20081608093C20080917A000D
:10200000846080937A0080917A00826080937A0065
:1020100080917A00816080937A0080917A00806854
:1020200080937A001092B402109228071092B202A4
:102030008091D70081608093D70080EA8093D80098
:1020400089B5806189BD89B5826089BD09B400FE0A
:10205000FDCF61E070E080E090E00E94450C80914F
:10206000D8008F7C80618093D8008091E000807FD1
:102070008093E0008091E1008E7E8093E1008DE00E
:102080008093E200559A209A81EC80937C0085B180
:10209000806F85B984B1877E84B984B1876E84B935
:1020A0005E9A5F988AB1806D8AB9769A6E9881B38C
:1020B000806F81BB899880B38D7080BB80E58CBDBB
:1020C00081E08DBD85E090E00E94EF075F9A85E09A
:1020D00090E00E94EF075E980E94FC07ECEAF0E0B7
:1020E00089EB90E024912EBD00000DB407FEFDCFDA
:1020F00031968E179F07B1F70E94FE0781E8809303
:102100006400809165008160809365000E94A20553
:102110000E94F40787FF26C00E94FC0785EA8EBD57
:1021200000000DB407FEFDCF0E94FE072E982F98E9
:102130002D988091640080628093640081E083BF69
:10214000889513BEFCCF2D980E94F40784788438BC
:1021500071F00E94F4078471843129F188EC90E0D9
:102160000E94EF070E94F40782FDEDCF38C02D9A40
:1021700088EC90E00E94EF072F9882E090E00E94A8
:10218000BA168F3F29F06FEF82E090E00E94C216EE
:1021900084EF91E00E94EF072F9A0E94F407847861
:1021A0008438D9F3D6CF2D9A88EC90E00E94EF07BF
:1021B0002E9882E090E00E94BA16882329F060E011
:1021C00082E090E00E94C21684EF91E00E94EF0747
:1021D0002E9A0E94F40784718431D9F3BFCF2D9ACF
:1021E00082E390E00E94EF070E94F4078111F8CF8C
:1021F000809164008E7F8093640080917A00806477
:1022000080937A0080917A0086FDFCCF009178005F
:10221000109179000E94200C20E030E098011127F5
:102220000027600F711F821F931F611571058105C3
:10223000910511F00E944B1680916400816080939B
:1022400064000E94FC0789ED0E947D0F8FE20E94CE
:102250007D0F8BED0E947D0F80E00E947D0F81E855
:102260000E947D0F809100010E947D0F0E94FE0759
:1022700080E090E00E9400088E3FD9F481E090E079
:102280000E9400088E3FA9F406E312E0E12CF12C35
:10229000C7010E94BA16D8018D938D01BFEFEB1ACA
:1022A000FB0AE6E7EE16F10499F7809147028823CE
:1022B00029F00E944C0FE12CF12C07C00E94620D06
:1022C0008111F9CF0E94190FF6CF00E010E020E055
:1022D000A801B70189EB96E00E9405090F5F1F4F27
:1022E00000341105A1F7FFEFEF1AFF0A21E4E2160F
:1022F000F10459F70E94EA0D2CE0C22E0E947F0CD7
:102300008091C106362F381B832F4090C20644208F
:1023100029F03093C3061092C206C5C39091C0063F
:10232000391748F48F5F891708F0BDC381E083BF78
:10233000889513BEB8C381E08093C2066093C1063E
:102340008091BC069091BD0601969093BD06809346
:10235000BC068091BE068093BF060E94F40780935E
:10236000BE060E94F4078C708C3019F580E10E9443
:10237000D007882331F080910001909101014497AA
:102380000AC080E80E94D007882341F080910001B4
:102390009091010144960E94840F85C380E20E94BF
:1023A000D007811188C380E40E94D007811183C3C4
:1023B0007AC380914702811106C0209044022220F6
:1023C00009F44DC082C0E1E0F0E040913C02509140
:1023D0003D0260913E0270913F02809138029091DF
:1023E0003902A0913A02B0913B02481759076A0797
:1023F0007B0711F0E0E0F0E0DF01AD5CBD4F8C91B8
:10240000E05DFD4F813039F48081823310F08FEF31
:1024100006C08F5F07C080818B3018F481E08C93F9
:1024200002C08150808320913202809131029091CC
:10243000300233E834BD809587BD81EF8093800002
:102440002093880090938A0088E00E94D007811131
:1024500032C384E00E94D00781112DC3AECF80E249
:102460000E94D007882379F080914302815087FD34
:102470001AC3E82F082E000CFF0BEA5CFD4F928573
:102480009923A1F314C080E40E94D007882391F01F
:10249000809143028F5F83300CF005C3E82F082E34
:1024A000000CFF0BEA5CFD4F9285992399F3809312
:1024B000430226C388E00E94D0078111D4C284E081
:1024C0000E94D0078111CFC2EEC2E22CF12C88E02D
:1024D0000E94D007882309F4FBC160904602D09087
:1024E0004502CE9CF001CF9CF00D11248F010E5EB1
:1024F0001E4F462D6D2DC8010E94D50C882309F46E
:10250000DDC2D80111969C9180903C0290903D02D2
:10251000A0903E02B0903F02BCE02B9E100111241F
:10252000712CEAE0DE9E600C711C11241B8220E0FD
:1025300030E01A830983291708F499C1FB81FF232E
:1025400041F080923C0290923D02A0923E02B092F5
:102550003F0280903C0290903D02A0903E02B090DD
:102560003F0228E432E0A0E06AE090E0F9017AE07E
:1025700040E050E0B081BB2311F04F5F5F4F7150DE
:102580003A967111F7CF4A30510579F4F9019AE082
:1025900043E0408391503A969111FACF7AE0870E4A
:1025A000911CA11CB11CA82F91E061502F5F3F4FDF
:1025B0006111DCCFAA2341F080923C0290923D024F
:1025C000A0923E02B0923F0280903C0290903D0269
:1025D000A0903E02B0903F0226E332E0AAE040E045
:1025E00050E060E070E0F901E40FF51FE289EE23AE
:1025F00011F06F5F7F4F4F5F5F4F4A30510599F782
:102600006A30710599F440E050E0F901E40FF51FDC
:1026100093E0928B4F5F5F4F4A305105B1F7BAE0BC
:102620008B0E911CA11CB11C482E91E0A150265F7D
:102630003F4FA111D4CF442041F080923C029092B0
:102640003D02A0923E02B0923F0291111FC08091C4
:102650003C0290913D02A0913E02B0913F02409118
:1026600038025091390260913A0270913B0248174A
:1026700059076A077B0708F0DAC080933802909305
:102680003902A0933A02B0933B02D1C001E010E0BE
:1026900082E3482E512C612C712C95E0D92EE6E373
:1026A000F2E0FC83EB83212C312C98012E5B3F4F11
:1026B0003E872D876D2D70E078876F83C8018F5B13
:1026C0009F4F680F791F788B6F8781E090E0AF8113
:1026D000B8858A1B9B0B9A8B898BED85FE85E20D55
:1026E000F31DFA83E9832F853889220D331D3C873A
:1026F0002B87EF80F884E00EF11E812C912CEB816A
:10270000FC81E80DF91D8289833009F053C0A98846
:10271000BA88AE0CBF1C4D2DB50189819A810E94EB
:102720009907B7016F5F7F4F7A87698770E4E71673
:10273000F10434F44D2DB70189819A810E949907E3
:10274000BC8AAB8AB7FE02C01C8A1B8AAB88BC88D5
:1027500089859A859E838D838134910524F0A0E438
:10276000B0E0BE83AD83ED81FE81AE16BF0664F49A
:1027700020E0A50169817A8189EB96E00E94050934
:10278000FFEFAF1ABF0AE4CF2B893C896D817E81B0
:10279000261737077CF420E04B895C896B857C85A4
:1027A00089EB96E00E9405098B899C8901969C8B98
:1027B0008B8BEACF9FEF891A990AA6E0EA0EF11CEB
:1027C000BAE08B16910409F09ACFEB81FC813A961E
:1027D000FC83EB83F6E02F0E311C2CE32216310430
:1027E00009F07BCF0E94A205C301B2010E94450CF3
:1027F000DA943AE0430E511C611C711C0F5F1F4FAD
:102800000730110509F04BCF80E090E0FC01E85B58
:10281000FD4F2AE03081333009F410822150319687
:102820002111F8CF0A968436910581F710CF1092C6
:1028300044020E94830D8091400281110AC0809160
:102840004102811108C080914202882339F082E060
:1028500003C080E001C081E0809343020E94F00E3B
:102860000E94620D81114CC10E94190F27C1A981DC
:10287000BA81DC90D29ED001D39EB00D1124A20D5E
:10288000B31D7301E20EF11C60E070E040E050E027
:102890004D15D8F48D01040F151F0E5E1E4FF80163
:1028A0005380552069F08B010E0D1F1D0A5C1D4FD2
:1028B000F801528AFFEF8F1A9F0AAF0ABF0A8B8373
:1028C0004F5F5F4F665F7F4FE3CF2F5F3F4F33CE4A
:1028D00084E00E94D007882349F0E0914302F0E0B1
:1028E000EA5CFD4F2286109244020AC10E94F4075E
:1028F000082F0E94F407182F10740E94F407382F35
:1029000030783D8B0E94F40780713D8905FD02C03F
:1029100020E001C020E2103411F090E001C090E40A
:10292000292B303811F090E001C090E8922B8031D3
:1029300011F080E001C080E1182F192B59F410929A
:10294000AD021092AE021092AF021092B00210923D
:10295000AC0245C08090AD029090AE02A090AF0254
:10296000B090B00281149104A104B104A1F40E94BA
:102970007F0CDC01CB01845D9E4FAF4FBF4F809336
:10298000AD029093AE02A093AF02B093B00281E08B
:102990008093AC0220C00E947F0C681579058A05DF
:1029A0009B05E8F00E947F0C2091AC02211103C02E
:1029B0002CE231E002C02BE430E0DC01CB01820FDD
:1029C000931FA11DB11D8093AD029093AE02A09301
:1029D000AF02B093B002812F17FF09C002C080E0A0
:1029E00006C090914602992311F0915016C084FFC1
:1029F00017C090914602292F30E0CE9CF001CF9C69
:102A0000F00D1124EE5EFE4F41816AE070E0641B20
:102A100071092617370724F49F5F9093460270C010
:102A200085FF08C090914502992321F09150909321
:102A3000450266C086FF37C080914502482F50E0AE
:102A4000CE9CF001CF9CF00D1124EE5EFE4F9081E4
:102A50002AE030E0291B31094217530724F58F5F24
:102A6000809345024DC0E0914302F0E0EA5CFD4FE7
:102A70008285809344021286C89EC00111248E5E16
:102A80009E4F0E94210D81113BC0E0E4F2E0919144
:102A900091118F5F63E472E06E177F07C1F78111B8
:102AA0002FC00E94190F80E090E0892B09F426CCFA
:102AB0000E94000021CC0E944C0F22C003E804BDFC
:102AC0008FEF87BD11EF109380001092880082E392
:102AD00080938A0062E370E080E090E00E94450C01
:102AE00020913202809131029091300204BD809594
:102AF00087BD109380002093880090938A00D3CFE5
:102B00000E94EA0DD0CF04970C94B715E8EDF6E0DB
:102B10001382128288EE93E0A0E0B0E08483958374
:102B2000A683B78386E092E0918380838FEF9FEF47
:102B300095878487E5EBF6E0138212821186128670
:102B400080E1838710861782158688E192E0918361
:102B5000808386E292E095838483108A1786128AA6
:102B6000118A81E0838B148A858B168A08950F93CE
:102B70001F93CF93DF938C0181E090E00E940008C7
:102B800080FF31C08AE090E00E9400089FEF980F1C
:102B90009E3F48F522E330E0D80150963C932E93B7
:102BA0001F9728E330E052963C932E935197CBE049
:102BB000D0E0D801ED91FC910190F081E02D682FDB
:102BC000C8010995CE010E9400082196C131D105A6
:102BD00081F70E94A20588EE93E0DF91CF911F91CB
:102BE0000F910C94EF07DF91CF911F910F910895F2
:102BF0008F929F92AF92BF92CF92DF92EF92FF920D
:102C0000CF93DF93EC01688179818A819B81611583
:102C100071058105910521F464E279ED8BE597E07A
:102C20002DE133EF41E050E00E94571649015A016F
:102C30009B01AC01A7EAB1E40E9476166B017C010E
:102C4000ACEEB4EFA50194010E948416DC01CB0127
:102C50008C0D9D1DAE1DBF1DB7FF03C00197A109BF
:102C6000B04888839983AA83BB83BC01CD019F7739
:102C7000DF91CF91FF90EF90DF90CF90BF90AF901A
:102C80009F908F9008950E94F81508958EE091E02E
:102C90000E94F815089560930E0170930F018093C0
:102CA0001001909311010895F8940C94DB16052EF1
:102CB00097FB1EF400940E946E1657FD07D00E94E9
:102CC000891607FC03D04EF40C946E16509540956F
:102CD000309521953F4F4F4F5F4F089590958095C8
:102CE000709561957F4F8F4F9F4F08950E94AB164F
:102CF000A59F900DB49F900DA49F800D911D112450
:102D00000895B7FF0C9476160E947616821B930BDB
:102D10000895A1E21A2EAA1BBB1BFD010DC0AA1F1C
:102D2000BB1FEE1FFF1FA217B307E407F50720F034
:102D3000A21BB30BE40BF50B661F771F881F991FAF
:102D40001A9469F760957095809590959B01AC01F8
:102D5000BD01CF010895A29FB001B39FC001A39F01
:102D6000700D811D1124911DB29F700D811D1124C4
:102D7000911D0895F999FECF92BD81BDF89A9927CA
:102D800080B50895262FF999FECF1FBA92BD81BD57
:102D900020BD0FB6F894FA9AF99A0FBE01960895DD
:102DA00081E090E0F8940C94DB16EE0FFF1F059085
:0A2DB000F491E02D0994F894FFCF90
:102DBA00FF0000E1000000000000FFFFFFFF01002C
:102DCA0000000000000000000000000000000101F7
:102DDA000A01000000000000000002020A010101CD
:102DEA0001000000000003030101010101010101CA
:102DFA00010102010A0101000000000000000301B4
:102E0A000A01010100000000000004010A01010199
:102E1A00010000000000050101010101010100009B
:102E2A00000001020A010100000000000000010385
:102E3A000A01010100000000000001040A01010169
:102E4A00010000000000010501010101010100006B
:102E5A00000002020A010100010000000000020253
:102E6A000A01000101000000000002020A0101013A
:102E7A0000000000000002020A0001010100000037
:102E8A00000003030A01010100000100000103031D
:102E9A000A01000001000001010103030A01010106
:102EAA0001000001000003030A0000010000010103
:102EBA000101000000009D031F05BE03B3030404C3
:102ECA00C203E003000000001E0403082E082D08B8
:102EDA00B715FCFF0000831500C1808100000000C7
:00000001FF
